{"abi":[{"type":"constructor","inputs":[{"name":"_admin","type":"address","internalType":"address"}],"stateMutability":"nonpayable"},{"type":"function","name":"admin","inputs":[],"outputs":[{"name":"","type":"address","internalType":"address"}],"stateMutability":"view"},{"type":"function","name":"getStudentCredentials","inputs":[{"name":"studentAddress","type":"address","internalType":"address"}],"outputs":[{"name":"","type":"bytes32[]","internalType":"bytes32[]"}],"stateMutability":"view"},{"type":"function","name":"isCredentialValid","inputs":[{"name":"credentialId","type":"bytes32","internalType":"bytes32"}],"outputs":[{"name":"","type":"bool","internalType":"bool"}],"stateMutability":"view"},{"type":"function","name":"isIssuer","inputs":[{"name":"account","type":"address","internalType":"address"}],"outputs":[{"name":"","type":"bool","internalType":"bool"}],"stateMutability":"view"},{"type":"function","name":"isStudent","inputs":[{"name":"account","type":"address","internalType":"address"}],"outputs":[{"name":"","type":"bool","internalType":"bool"}],"stateMutability":"view"},{"type":"function","name":"issueCredential","inputs":[{"name":"_ipfsHash","type":"string","internalType":"string"},{"name":"_studentAddress","type":"address","internalType":"address"}],"outputs":[{"name":"credentialId","type":"bytes32","internalType":"bytes32"}],"stateMutability":"nonpayable"},{"type":"function","name":"pause","inputs":[],"outputs":[],"stateMutability":"nonpayable"},{"type":"function","name":"paused","inputs":[],"outputs":[{"name":"","type":"bool","internalType":"bool"}],"stateMutability":"view"},{"type":"function","name":"registerDepartment","inputs":[{"name":"department","type":"address","internalType":"address"}],"outputs":[],"stateMutability":"nonpayable"},{"type":"function","name":"registerStudent","inputs":[{"name":"student","type":"address","internalType":"address"}],"outputs":[],"stateMutability":"nonpayable"},{"type":"function","name":"removeDepartment","inputs":[{"name":"department","type":"address","internalType":"address"}],"outputs":[],"stateMutability":"nonpayable"},{"type":"function","name":"revokeCredential","inputs":[{"name":"credentialId","type":"bytes32","internalType":"bytes32"}],"outputs":[],"stateMutability":"nonpayable"},{"type":"function","name":"totalIssued","inputs":[],"outputs":[{"name":"","type":"uint256","internalType":"uint256"}],"stateMutability":"view"},{"type":"function","name":"unpause","inputs":[],"outputs":[],"stateMutability":"nonpayable"},{"type":"function","name":"verifyCredentialByHash","inputs":[{"name":"_ipfsHash","type":"string","internalType":"string"}],"outputs":[{"name":"","type":"tuple","internalType":"struct CredentialRegistry.Credential","components":[{"name":"credentialId","type":"bytes32","internalType":"bytes32"},{"name":"ipfsHash","type":"string","internalType":"string"},{"name":"studentAddress","type":"address","internalType":"address"},{"name":"issuer","type":"address","internalType":"address"},{"name":"issuedAt","type":"uint256","internalType":"uint256"},{"name":"revokedAt","type":"uint256","internalType":"uint256"},{"name":"status","type":"uint8","internalType":"enum CredentialRegistry.CredentialStatus"}]}],"stateMutability":"view"},{"type":"function","name":"verifyCredentialById","inputs":[{"name":"_credentialId","type":"bytes32","internalType":"bytes32"}],"outputs":[{"name":"","type":"tuple","internalType":"struct CredentialRegistry.Credential","components":[{"name":"credentialId","type":"bytes32","internalType":"bytes32"},{"name":"ipfsHash","type":"string","internalType":"string"},{"name":"studentAddress","type":"address","internalType":"address"},{"name":"issuer","type":"address","internalType":"address"},{"name":"issuedAt","type":"uint256","internalType":"uint256"},{"name":"revokedAt","type":"uint256","internalType":"uint256"},{"name":"status","type":"uint8","internalType":"enum CredentialRegistry.CredentialStatus"}]}],"stateMutability":"view"},{"type":"event","name":"CredentialIssued","inputs":[{"name":"credentialId","type":"bytes32","indexed":true,"internalType":"bytes32"},{"name":"studentAddress","type":"address","indexed":true,"internalType":"address"},{"name":"issuer","type":"address","indexed":true,"internalType":"address"}],"anonymous":false},{"type":"event","name":"CredentialRevoked","inputs":[{"name":"credentialId","type":"bytes32","indexed":true,"internalType":"bytes32"},{"name":"revokedBy","type":"address","indexed":true,"internalType":"address"},{"name":"revokedAt","type":"uint256","indexed":false,"internalType":"uint256"}],"anonymous":false},{"type":"event","name":"IssuerRegistered","inputs":[{"name":"department","type":"address","indexed":true,"internalType":"address"}],"anonymous":false},{"type":"event","name":"IssuerRemoved","inputs":[{"name":"department","type":"address","indexed":true,"internalType":"address"}],"anonymous":false},{"type":"event","name":"Paused","inputs":[{"name":"account","type":"address","indexed":false,"internalType":"address"}],"anonymous":false},{"type":"event","name":"StudentRegistered","inputs":[{"name":"student","type":"address","indexed":true,"internalType":"address"}],"anonymous":false},{"type":"event","name":"Unpaused","inputs":[{"name":"account","type":"address","indexed":false,"internalType":"address"}],"anonymous":false},{"type":"error","name":"EnforcedPause","inputs":[]},{"type":"error","name":"ExpectedPause","inputs":[]},{"type":"error","name":"ReentrancyGuardReentrantCall","inputs":[]}],"bytecode":{"object":"0x608060405234801561000f575f5ffd5b50604051612ddf380380612ddf83398181016040528101906100319190610199565b600161004f61004461010960201b60201c565b61013260201b60201c565b5f01819055505f73ffffffffffffffffffffffffffffffffffffffff168173ffffffffffffffffffffffffffffffffffffffff16036100c3576040517f08c379a00000000000000000000000000000000000000000000000000000000081526004016100ba9061021e565b60405180910390fd5b805f60016101000a81548173ffffffffffffffffffffffffffffffffffffffff021916908373ffffffffffffffffffffffffffffffffffffffff1602179055505061023c565b5f7f9b779b17422d0df92223018b32b4d1fa46e071723d6817e2486d003becc55f005f1b905090565b5f819050919050565b5f5ffd5b5f73ffffffffffffffffffffffffffffffffffffffff82169050919050565b5f6101688261013f565b9050919050565b6101788161015e565b8114610182575f5ffd5b50565b5f815190506101938161016f565b92915050565b5f602082840312156101ae576101ad61013b565b5b5f6101bb84828501610185565b91505092915050565b5f82825260208201905092915050565b7f41646d696e2063616e6e6f74206265207a65726f2061646472657373000000005f82015250565b5f610208601c836101c4565b9150610213826101d4565b602082019050919050565b5f6020820190508181035f830152610235816101fc565b9050919050565b612b96806102495f395ff3fe608060405234801561000f575f5ffd5b50600436106100fe575f3560e01c806382f7d39211610095578063c76989ea11610064578063c76989ea146102a8578063ca6eec78146102d8578063f5be3193146102f4578063f851a44014610312576100fe565b806382f7d392146102225780638456cb5914610252578063877b9a671461025c578063c7573e821461028c576100fe565b8063479a289f116100d1578063479a289f146101885780635c975abb146101b85780636a12cb0c146101d65780636dc158eb146101f2576100fe565b8063218cdc321461010257806325f021ca1461013257806329ee8a1c1461014e5780633f4ba83a1461017e575b5f5ffd5b61011c60048036038101906101179190611bfb565b610330565b6040516101299190611ce6565b60405180910390f35b61014c60048036038101906101479190611bfb565b61044c565b005b61016860048036038101906101639190611d67565b610577565b6040516101759190611f55565b60405180910390f35b6101866107a2565b005b6101a2600480360381019061019d9190611f75565b6107b4565b6040516101af9190611fe1565b60405180910390f35b6101c0610c15565b6040516101cd9190612014565b60405180910390f35b6101f060048036038101906101eb9190611bfb565b610c29565b005b61020c60048036038101906102079190612057565b610dc4565b6040516102199190612014565b60405180910390f35b61023c60048036038101906102379190611bfb565b610fee565b6040516102499190612014565b60405180910390f35b61025a611040565b005b61027660048036038101906102719190611bfb565b611052565b6040516102839190612014565b60405180910390f35b6102a660048036038101906102a19190611bfb565b6110a4565b005b6102c260048036038101906102bd9190612057565b61123f565b6040516102cf9190611f55565b60405180910390f35b6102f260048036038101906102ed9190612057565b61148a565b005b6102fc611772565b6040516103099190612091565b60405180910390f35b61031a611778565b60405161032791906120b9565b60405180910390f35b606060065f8373ffffffffffffffffffffffffffffffffffffffff1673ffffffffffffffffffffffffffffffffffffffff1681526020019081526020015f205f9054906101000a900460ff166103bb576040517f08c379a00000000000000000000000000000000000000000000000000000000081526004016103b29061212c565b60405180910390fd5b60035f8373ffffffffffffffffffffffffffffffffffffffff1673ffffffffffffffffffffffffffffffffffffffff1681526020019081526020015f2080548060200260200160405190810160405280929190818152602001828054801561044057602002820191905f5260205f20905b81548152602001906001019080831161042c575b50505050509050919050565b61045461179d565b60055f8273ffffffffffffffffffffffffffffffffffffffff1673ffffffffffffffffffffffffffffffffffffffff1681526020019081526020015f205f9054906101000a900460ff166104dd576040517f08c379a00000000000000000000000000000000000000000000000000000000081526004016104d490612194565b60405180910390fd5b5f60055f8373ffffffffffffffffffffffffffffffffffffffff1673ffffffffffffffffffffffffffffffffffffffff1681526020019081526020015f205f6101000a81548160ff0219169083151502179055508073ffffffffffffffffffffffffffffffffffffffff167faf66545c919a3be306ee446d8f42a9558b5b022620df880517bc9593ec0f2d5260405160405180910390a250565b61057f611b24565b5f600484846040516105929291906121ee565b90815260200160405180910390205490505f5f1b81036105e7576040517f08c379a00000000000000000000000000000000000000000000000000000000081526004016105de90612276565b60405180910390fd5b5f60025f8381526020019081526020015f206040518060e00160405290815f820154815260200160018201805461061d906122c1565b80601f0160208091040260200160405190810160405280929190818152602001828054610649906122c1565b80156106945780601f1061066b57610100808354040283529160200191610694565b820191905f5260205f20905b81548152906001019060200180831161067757829003601f168201915b50505050508152602001600282015f9054906101000a900473ffffffffffffffffffffffffffffffffffffffff1673ffffffffffffffffffffffffffffffffffffffff1673ffffffffffffffffffffffffffffffffffffffff168152602001600382015f9054906101000a900473ffffffffffffffffffffffffffffffffffffffff1673ffffffffffffffffffffffffffffffffffffffff1673ffffffffffffffffffffffffffffffffffffffff1681526020016004820154815260200160058201548152602001600682015f9054906101000a900460ff16600181111561077f5761077e611e49565b5b600181111561079157610790611e49565b5b815250509050809250505092915050565b6107aa61179d565b6107b261182e565b565b5f6107bd61188e565b6107c5611970565b6107cd611992565b5f73ffffffffffffffffffffffffffffffffffffffff168273ffffffffffffffffffffffffffffffffffffffff160361083b576040517f08c379a00000000000000000000000000000000000000000000000000000000081526004016108329061233b565b60405180910390fd5b60065f8373ffffffffffffffffffffffffffffffffffffffff1673ffffffffffffffffffffffffffffffffffffffff1681526020019081526020015f205f9054906101000a900460ff166108c4576040517f08c379a00000000000000000000000000000000000000000000000000000000081526004016108bb9061212c565b60405180910390fd5b5f5f1b600485856040516108d99291906121ee565b90815260200160405180910390205414610928576040517f08c379a000000000000000000000000000000000000000000000000000000000815260040161091f906123c9565b60405180910390fd5b818484423360405160200161094195949392919061244c565b6040516020818303038152906040528051906020012090506040518060e0016040528082815260200185858080601f0160208091040260200160405190810160405280939291908181526020018383808284375f81840152601f19601f8201169050808301925050505050505081526020018373ffffffffffffffffffffffffffffffffffffffff1681526020013373ffffffffffffffffffffffffffffffffffffffff1681526020014281526020015f81526020015f6001811115610a0a57610a09611e49565b5b81525060025f8381526020019081526020015f205f820151815f01556020820151816001019081610a3b9190612675565b506040820151816002015f6101000a81548173ffffffffffffffffffffffffffffffffffffffff021916908373ffffffffffffffffffffffffffffffffffffffff1602179055506060820151816003015f6101000a81548173ffffffffffffffffffffffffffffffffffffffff021916908373ffffffffffffffffffffffffffffffffffffffff1602179055506080820151816004015560a0820151816005015560c0820151816006015f6101000a81548160ff02191690836001811115610b0657610b05611e49565b5b021790555090505060035f8373ffffffffffffffffffffffffffffffffffffffff1673ffffffffffffffffffffffffffffffffffffffff1681526020019081526020015f2081908060018154018082558091505060019003905f5260205f20015f90919091909150558060048585604051610b829291906121ee565b90815260200160405180910390208190555060015f815480929190610ba690612771565b91905055503373ffffffffffffffffffffffffffffffffffffffff168273ffffffffffffffffffffffffffffffffffffffff16827f2ca620382cc7dc0c7e3dec8ad0cccc7346c771f0e2130ed0cb76c3152c15b27360405160405180910390a4610c0e6119d3565b9392505050565b5f5f5f9054906101000a900460ff16905090565b610c3161179d565b5f73ffffffffffffffffffffffffffffffffffffffff168173ffffffffffffffffffffffffffffffffffffffff1603610c9f576040517f08c379a0000000000000000000000000000000000000000000000000000000008152600401610c9690612802565b60405180910390fd5b60055f8273ffffffffffffffffffffffffffffffffffffffff1673ffffffffffffffffffffffffffffffffffffffff1681526020019081526020015f205f9054906101000a900460ff1615610d29576040517f08c379a0000000000000000000000000000000000000000000000000000000008152600401610d209061286a565b60405180910390fd5b600160055f8373ffffffffffffffffffffffffffffffffffffffff1673ffffffffffffffffffffffffffffffffffffffff1681526020019081526020015f205f6101000a81548160ff0219169083151502179055508073ffffffffffffffffffffffffffffffffffffffff167ffde169c7a1e7ae65e55d12565b943b41f7a7d8c676099b34a09205e5693dd9e560405160405180910390a250565b5f5f60025f8481526020019081526020015f206040518060e00160405290815f8201548152602001600182018054610dfb906122c1565b80601f0160208091040260200160405190810160405280929190818152602001828054610e27906122c1565b8015610e725780601f10610e4957610100808354040283529160200191610e72565b820191905f5260205f20905b815481529060010190602001808311610e5557829003601f168201915b50505050508152602001600282015f9054906101000a900473ffffffffffffffffffffffffffffffffffffffff1673ffffffffffffffffffffffffffffffffffffffff1673ffffffffffffffffffffffffffffffffffffffff168152602001600382015f9054906101000a900473ffffffffffffffffffffffffffffffffffffffff1673ffffffffffffffffffffffffffffffffffffffff1673ffffffffffffffffffffffffffffffffffffffff1681526020016004820154815260200160058201548152602001600682015f9054906101000a900460ff166001811115610f5d57610f5c611e49565b5b6001811115610f6f57610f6e611e49565b5b8152505090505f816080015103610fbb576040517f08c379a0000000000000000000000000000000000000000000000000000000008152600401610fb2906128d2565b60405180910390fd5b5f6001811115610fce57610fcd611e49565b5b8160c001516001811115610fe557610fe4611e49565b5b14915050919050565b5f60065f8373ffffffffffffffffffffffffffffffffffffffff1673ffffffffffffffffffffffffffffffffffffffff1681526020019081526020015f205f9054906101000a900460ff169050919050565b61104861179d565b6110506119ed565b565b5f60055f8373ffffffffffffffffffffffffffffffffffffffff1673ffffffffffffffffffffffffffffffffffffffff1681526020019081526020015f205f9054906101000a900460ff169050919050565b6110ac61188e565b5f73ffffffffffffffffffffffffffffffffffffffff168173ffffffffffffffffffffffffffffffffffffffff160361111a576040517f08c379a000000000000000000000000000000000000000000000000000000000815260040161111190612802565b60405180910390fd5b60065f8273ffffffffffffffffffffffffffffffffffffffff1673ffffffffffffffffffffffffffffffffffffffff1681526020019081526020015f205f9054906101000a900460ff16156111a4576040517f08c379a000000000000000000000000000000000000000000000000000000000815260040161119b9061293a565b60405180910390fd5b600160065f8373ffffffffffffffffffffffffffffffffffffffff1673ffffffffffffffffffffffffffffffffffffffff1681526020019081526020015f205f6101000a81548160ff0219169083151502179055508073ffffffffffffffffffffffffffffffffffffffff167f413281c709cf2c555b5d6d90e43f841b9ed7d34daa82e221aedbb3773082fcc860405160405180910390a250565b611247611b24565b5f5f1b820361128b576040517f08c379a0000000000000000000000000000000000000000000000000000000008152600401611282906129a2565b60405180910390fd5b5f60025f8481526020019081526020015f206040518060e00160405290815f82015481526020016001820180546112c1906122c1565b80601f01602080910402602001604051908101604052809291908181526020018280546112ed906122c1565b80156113385780601f1061130f57610100808354040283529160200191611338565b820191905f5260205f20905b81548152906001019060200180831161131b57829003601f168201915b50505050508152602001600282015f9054906101000a900473ffffffffffffffffffffffffffffffffffffffff1673ffffffffffffffffffffffffffffffffffffffff1673ffffffffffffffffffffffffffffffffffffffff168152602001600382015f9054906101000a900473ffffffffffffffffffffffffffffffffffffffff1673ffffffffffffffffffffffffffffffffffffffff1673ffffffffffffffffffffffffffffffffffffffff1681526020016004820154815260200160058201548152602001600682015f9054906101000a900460ff16600181111561142357611422611e49565b5b600181111561143557611434611e49565b5b8152505090505f816080015103611481576040517f08c379a0000000000000000000000000000000000000000000000000000000008152600401611478906128d2565b60405180910390fd5b80915050919050565b611492611992565b5f5f1b81036114d6576040517f08c379a00000000000000000000000000000000000000000000000000000000081526004016114cd906129a2565b60405180910390fd5b5f60025f8381526020019081526020015f2090505f816004015403611530576040517f08c379a0000000000000000000000000000000000000000000000000000000008152600401611527906128d2565b60405180910390fd5b60018081111561154357611542611e49565b5b816006015f9054906101000a900460ff16600181111561156657611565611e49565b5b036115a6576040517f08c379a000000000000000000000000000000000000000000000000000000000815260040161159d90612a0a565b60405180910390fd5b5f5f60019054906101000a900473ffffffffffffffffffffffffffffffffffffffff1673ffffffffffffffffffffffffffffffffffffffff163373ffffffffffffffffffffffffffffffffffffffff161490505f3373ffffffffffffffffffffffffffffffffffffffff16836003015f9054906101000a900473ffffffffffffffffffffffffffffffffffffffff1673ffffffffffffffffffffffffffffffffffffffff1614801561169e575060055f3373ffffffffffffffffffffffffffffffffffffffff1673ffffffffffffffffffffffffffffffffffffffff1681526020019081526020015f205f9054906101000a900460ff165b905081806116a95750805b6116e8576040517f08c379a00000000000000000000000000000000000000000000000000000000081526004016116df90612a72565b60405180910390fd5b6001836006015f6101000a81548160ff0219169083600181111561170f5761170e611e49565b5b02179055504283600501819055503373ffffffffffffffffffffffffffffffffffffffff16847f80d4746828447d65eceb938c7f9d85fbeb232fe7819d5209ed452b3940f8904b426040516117649190612091565b60405180910390a350505050565b60015481565b5f60019054906101000a900473ffffffffffffffffffffffffffffffffffffffff1681565b5f60019054906101000a900473ffffffffffffffffffffffffffffffffffffffff1673ffffffffffffffffffffffffffffffffffffffff163373ffffffffffffffffffffffffffffffffffffffff161461182c576040517f08c379a000000000000000000000000000000000000000000000000000000000815260040161182390612ada565b60405180910390fd5b565b611836611a4e565b5f5f5f6101000a81548160ff0219169083151502179055507f5db9ee0a495bf2e6ff9c91a7834c1ba4fdd244a5e8aa4e537bd38aeae4b073aa611877611a8e565b60405161188491906120b9565b60405180910390a1565b5f60019054906101000a900473ffffffffffffffffffffffffffffffffffffffff1673ffffffffffffffffffffffffffffffffffffffff163373ffffffffffffffffffffffffffffffffffffffff16148061192f575060055f3373ffffffffffffffffffffffffffffffffffffffff1673ffffffffffffffffffffffffffffffffffffffff1681526020019081526020015f205f9054906101000a900460ff165b61196e576040517f08c379a000000000000000000000000000000000000000000000000000000000815260040161196590612b42565b60405180910390fd5b565b611978611a95565b600261198a611985611ad6565b611aff565b5f0181905550565b61199a610c15565b156119d1576040517fd93c066500000000000000000000000000000000000000000000000000000000815260040160405180910390fd5b565b60016119e56119e0611ad6565b611aff565b5f0181905550565b6119f5611992565b60015f5f6101000a81548160ff0219169083151502179055507f62e78cea01bee320cd4e420270b5ea74000d11b0c9f74754ebdbfc544b05a258611a37611a8e565b604051611a4491906120b9565b60405180910390a1565b611a56610c15565b611a8c576040517f8dfc202b00000000000000000000000000000000000000000000000000000000815260040160405180910390fd5b565b5f33905090565b611a9d611b08565b15611ad4576040517f3ee5aeb500000000000000000000000000000000000000000000000000000000815260040160405180910390fd5b565b5f7f9b779b17422d0df92223018b32b4d1fa46e071723d6817e2486d003becc55f005f1b905090565b5f819050919050565b5f6002611b1b611b16611ad6565b611aff565b5f015414905090565b6040518060e001604052805f8152602001606081526020015f73ffffffffffffffffffffffffffffffffffffffff1681526020015f73ffffffffffffffffffffffffffffffffffffffff1681526020015f81526020015f81526020015f6001811115611b9357611b92611e49565b5b81525090565b5f5ffd5b5f5ffd5b5f73ffffffffffffffffffffffffffffffffffffffff82169050919050565b5f611bca82611ba1565b9050919050565b611bda81611bc0565b8114611be4575f5ffd5b50565b5f81359050611bf581611bd1565b92915050565b5f60208284031215611c1057611c0f611b99565b5b5f611c1d84828501611be7565b91505092915050565b5f81519050919050565b5f82825260208201905092915050565b5f819050602082019050919050565b5f819050919050565b611c6181611c4f565b82525050565b5f611c728383611c58565b60208301905092915050565b5f602082019050919050565b5f611c9482611c26565b611c9e8185611c30565b9350611ca983611c40565b805f5b83811015611cd9578151611cc08882611c67565b9750611ccb83611c7e565b925050600181019050611cac565b5085935050505092915050565b5f6020820190508181035f830152611cfe8184611c8a565b905092915050565b5f5ffd5b5f5ffd5b5f5ffd5b5f5f83601f840112611d2757611d26611d06565b5b8235905067ffffffffffffffff811115611d4457611d43611d0a565b5b602083019150836001820283011115611d6057611d5f611d0e565b5b9250929050565b5f5f60208385031215611d7d57611d7c611b99565b5b5f83013567ffffffffffffffff811115611d9a57611d99611b9d565b5b611da685828601611d12565b92509250509250929050565b5f81519050919050565b5f82825260208201905092915050565b8281835e5f83830152505050565b5f601f19601f8301169050919050565b5f611df482611db2565b611dfe8185611dbc565b9350611e0e818560208601611dcc565b611e1781611dda565b840191505092915050565b611e2b81611bc0565b82525050565b5f819050919050565b611e4381611e31565b82525050565b7f4e487b71000000000000000000000000000000000000000000000000000000005f52602160045260245ffd5b60028110611e8757611e86611e49565b5b50565b5f819050611e9782611e76565b919050565b5f611ea682611e8a565b9050919050565b611eb681611e9c565b82525050565b5f60e083015f830151611ed15f860182611c58565b5060208301518482036020860152611ee98282611dea565b9150506040830151611efe6040860182611e22565b506060830151611f116060860182611e22565b506080830151611f246080860182611e3a565b5060a0830151611f3760a0860182611e3a565b5060c0830151611f4a60c0860182611ead565b508091505092915050565b5f6020820190508181035f830152611f6d8184611ebc565b905092915050565b5f5f5f60408486031215611f8c57611f8b611b99565b5b5f84013567ffffffffffffffff811115611fa957611fa8611b9d565b5b611fb586828701611d12565b93509350506020611fc886828701611be7565b9150509250925092565b611fdb81611c4f565b82525050565b5f602082019050611ff45f830184611fd2565b92915050565b5f8115159050919050565b61200e81611ffa565b82525050565b5f6020820190506120275f830184612005565b92915050565b61203681611c4f565b8114612040575f5ffd5b50565b5f813590506120518161202d565b92915050565b5f6020828403121561206c5761206b611b99565b5b5f61207984828501612043565b91505092915050565b61208b81611e31565b82525050565b5f6020820190506120a45f830184612082565b92915050565b6120b381611bc0565b82525050565b5f6020820190506120cc5f8301846120aa565b92915050565b5f82825260208201905092915050565b7f53747564656e74206973206e6f742072656769737465726564000000000000005f82015250565b5f6121166019836120d2565b9150612121826120e2565b602082019050919050565b5f6020820190508181035f8301526121438161210a565b9050919050565b7f41646472657373206973206e6f7420616e2069737375657200000000000000005f82015250565b5f61217e6018836120d2565b91506121898261214a565b602082019050919050565b5f6020820190508181035f8301526121ab81612172565b9050919050565b5f81905092915050565b828183375f83830152505050565b5f6121d583856121b2565b93506121e28385846121bc565b82840190509392505050565b5f6121fa8284866121ca565b91508190509392505050565b7f4e6f2063726564656e7469616c20666f756e6420666f722074686973206861735f8201527f6800000000000000000000000000000000000000000000000000000000000000602082015250565b5f6122606021836120d2565b915061226b82612206565b604082019050919050565b5f6020820190508181035f83015261228d81612254565b9050919050565b7f4e487b71000000000000000000000000000000000000000000000000000000005f52602260045260245ffd5b5f60028204905060018216806122d857607f821691505b6020821081036122eb576122ea612294565b5b50919050565b7f53747564656e74206164647265737320697320696e76616c69640000000000005f82015250565b5f612325601a836120d2565b9150612330826122f1565b602082019050919050565b5f6020820190508181035f83015261235281612319565b9050919050565b7f5468697320686173682068617320616c7265616479206265656e2069737375655f8201527f6400000000000000000000000000000000000000000000000000000000000000602082015250565b5f6123b36021836120d2565b91506123be82612359565b604082019050919050565b5f6020820190508181035f8301526123e0816123a7565b9050919050565b5f8160601b9050919050565b5f6123fd826123e7565b9050919050565b5f61240e826123f3565b9050919050565b61242661242182611bc0565b612404565b82525050565b5f819050919050565b61244661244182611e31565b61242c565b82525050565b5f6124578288612415565b6014820191506124688286886121ca565b91506124748285612435565b6020820191506124848284612415565b6014820191508190509695505050505050565b7f4e487b71000000000000000000000000000000000000000000000000000000005f52604160045260245ffd5b5f819050815f5260205f209050919050565b5f6020601f8301049050919050565b5f82821b905092915050565b5f600883026125207fffffffffffffffffffffffffffffffffffffffffffffffffffffffffffffffff826124e5565b61252a86836124e5565b95508019841693508086168417925050509392505050565b5f819050919050565b5f61256561256061255b84611e31565b612542565b611e31565b9050919050565b5f819050919050565b61257e8361254b565b61259261258a8261256c565b8484546124f1565b825550505050565b5f5f905090565b6125a961259a565b6125b4818484612575565b505050565b5f5b828110156125da576125cf5f8284016125a1565b6001810190506125bb565b505050565b601f82111561262d578282111561262c576125f9816124c4565b612602836124d6565b61260b856124d6565b6020861015612618575f90505b808301612627828403826125b9565b505050505b5b505050565b5f82821c905092915050565b5f61264d5f1984600802612632565b1980831691505092915050565b5f612665838361263e565b9150826002028217905092915050565b61267e82611db2565b67ffffffffffffffff81111561269757612696612497565b5b6126a182546122c1565b6126ac8282856125df565b5f60209050601f8311600181146126dd575f84156126cb578287015190505b6126d5858261265a565b86555061273c565b601f1984166126eb866124c4565b5f5b82811015612712578489015182556001820191506020850194506020810190506126ed565b8683101561272f578489015161272b601f89168261263e565b8355505b6001600288020188555050505b505050505050565b7f4e487b71000000000000000000000000000000000000000000000000000000005f52601160045260245ffd5b5f61277b82611e31565b91507fffffffffffffffffffffffffffffffffffffffffffffffffffffffffffffffff82036127ad576127ac612744565b5b600182019050919050565b7f416464726573732063616e6e6f74206265207a65726f206164647265737300005f82015250565b5f6127ec601e836120d2565b91506127f7826127b8565b602082019050919050565b5f6020820190508181035f830152612819816127e0565b9050919050565b7f4164647265737320616c7265616479206861732069737375657220726f6c65005f82015250565b5f612854601f836120d2565b915061285f82612820565b602082019050919050565b5f6020820190508181035f83015261288181612848565b9050919050565b7f43726564656e7469616c20646f6573206e6f74206578697374000000000000005f82015250565b5f6128bc6019836120d2565b91506128c782612888565b602082019050919050565b5f6020820190508181035f8301526128e9816128b0565b9050919050565b7f53747564656e7420697320616c726561647920726567697374657265640000005f82015250565b5f612924601d836120d2565b915061292f826128f0565b602082019050919050565b5f6020820190508181035f83015261295181612918565b9050919050565b7f496e76616c69642063726564656e7469616c20494400000000000000000000005f82015250565b5f61298c6015836120d2565b915061299782612958565b602082019050919050565b5f6020820190508181035f8301526129b981612980565b9050919050565b7f43726564656e7469616c20697320616c7265616479207265766f6b65640000005f82015250565b5f6129f4601d836120d2565b91506129ff826129c0565b602082019050919050565b5f6020820190508181035f830152612a21816129e8565b9050919050565b7f4e6f7420617574686f726973656420746f207265766f6b6500000000000000005f82015250565b5f612a5c6018836120d2565b9150612a6782612a28565b602082019050919050565b5f6020820190508181035f830152612a8981612a50565b9050919050565b7f4f6e6c792061646d696e2063616e2063616c6c207468697300000000000000005f82015250565b5f612ac46018836120d2565b9150612acf82612a90565b602082019050919050565b5f6020820190508181035f830152612af181612ab8565b9050919050565b7f4e6f7420617574686f72697a65640000000000000000000000000000000000005f82015250565b5f612b2c600e836120d2565b9150612b3782612af8565b602082019050919050565b5f6020820190508181035f830152612b5981612b20565b905091905056fea26469706673582212208d1c8f8e43680cb0a63635acb1da8600b2dd56b1e305d626e6fe9408d014b79864736f6c63430008210033","linkReferences":{}},"methodIdentifiers":{"admin()":"f851a440","getStudentCredentials(address)":"218cdc32","isCredentialValid(bytes32)":"6dc158eb","isIssuer(address)":"877b9a67","isStudent(address)":"82f7d392","issueCredential(string,address)":"479a289f","pause()":"8456cb59","paused()":"5c975abb","registerDepartment(address)":"6a12cb0c","registerStudent(address)":"c7573e82","removeDepartment(address)":"25f021ca","revokeCredential(bytes32)":"ca6eec78","totalIssued()":"f5be3193","unpause()":"3f4ba83a","verifyCredentialByHash(string)":"29ee8a1c","verifyCredentialById(bytes32)":"c76989ea"},"id":20}